:100000000C94D9040C940A050C940A050C940A0566
:100010000C940A050C940A050C940A050C940A0524
:100020000C940A050C940A050C940A050C940A0514
:100030000C940A050C940A050C940A050C940A0504
:100040000C940A050C940A050C940A050C940A05F4
:100050000C940A050C940A050C940A050C941910CA
:100060000C940A050C948D100C9463100C940A05E2
:100070000C940A050C940A050C940A050C940A05C4
:100080000C940A050C940A050C940A050C940A05B4
:100090000C940A050C940A050C940A050C94F50EB0
:1000A0000C940A050C940A050C940A050C940A0594
:1000B0000C940A050C940A050C940A050C940A0584
:1000C0000C940A050C940A050C940A050C940A0574
:1000D0000C940A050C940A050C940A050C940A0564
:1000E0000C940A050C94C3100C9443070C94F80567
:1000F0000C9416060C94450D0C941E060C942608C0
:100100000C94FE050C9428060C942C090C94B80C45
:100110000C9470070C9493070C941A060C94E90540
:100120000C943D050C9408060C944F050C94ED05B9
:100130000C9469050C94F1050C947F070C94210A2A
:100140000C9440050C948C0D0C943F050C942306E4
:100150000C9424060C94770B0C9439070C94A1078B
:100160000C94E3050C9402060C940C060C941006F7
:100170000C943E050C94D9070C94F5050C9462057B
:100180000C9496050C948D0D0C94640D00002000C9
:100190002300260029002C002F003200000100005F
:1001A00003010601090100002100240027002A00A4
:1001B0002D003000330001010000040107010A0195
:1001C00000002200250028002B002E003100340002
:1001D00002010000050108010B01050505050705E1
:1001E00008080808020202020A0A080804040404B3
:1001F00001010101010101010303030303030303DF
:10020000040707070C0C0C0C0C0C0C0C020202026D
:1002100006060606060606060B0B0B0B0B0B0B0B56
:100220000102102020080810204010204080020108
:1002300002010804020101020408102040808040ED
:1002400020100804020180040201804020100804EC
:10025000020108040201010204081020408001028A
:1002600004081020408000000A0B02090C0D0E0843
:10027000070304010000000000000000000000006F
:10028000000000000000000000000000000000006E
:10029000000012111000000000000000000000002B
:1002A00000000000000000000000000020FF01012D
:1002B00000000000000000000000065F06000000D3
:1002C000000007000007000000147F14147F1400D2
:1002D00000242A6B6B2A1200004626100864620074
:1002E000304A454D32484800000004030000000039
:1002F000001C224100000000000041221C00000000
:10030000082A1C1C1C2A08000008083E08080000D7
:1003100000008060000000000008080808080800CD
:1003200000000060000000000040201008040200EF
:10033000003E615149453E000044427F404000007C
:10034000006251514949660000224149494936003D
:10035000101814527F5010000027454545453900BC
:10036000003C4A4949493000000301710905030076
:1003700000364949494936000006494949291E00C5
:100380000000006600000000000080660000000021
:100390000008142241000000002424242424240006
:1003A000000000412214080000020101510906006A
:1003B000003E415D55551E00007C121111127C005B
:1003C00000417F4949493600001C22414141220039
:1003D00000417F4141221C0000417F495D41630093
:1003E00000417F491D010300001C22415151720050
:1003F000007F080808087F000000417F41000000DE
:1004000000304040413F010000417F08142241403C
:1004100000417F4140406000007F01020402017FF3
:10042000007F010204087F00001C224141221C00C1
:1004300000417F4909090600001E212131215E404B
:1004400000417F491929460000264949494932009F
:10045000000301417F410103003F404040403F0015
:10046000000F10204020100F003F40403840403F18
:100470000041221408142241000102447844020180
:100480000043615149454361007F41414100000003
:100490000102040810204000004141417F0000009B
:1004A000080402010204080080808080808080802F
:1004B000000000030400000000205454545478400D
:1004C00000017F3048484830003844444444280004
:1004D0000030484848317F40003854545454180084
:1004E0000000487E490102000098A4A4A4A4780456
:1004F00000417F08040478000000447D40000000B3
:100500000060808080847D0000017F1028444000CE
:100510000000417F40000000007C0404780404785F
:10052000007C080404047800003844444444380043
:100530000084FC98242418000018242498FC8400CB
:1005400000447C48040418000048545454542400C7
:100550000004043F44442000003C404040207C0014
:10056000000C10204020100C003C40403840403C23
:100570000044281028440000009CA0A0A0A07C00FB
:10058000004464544C440000000808364141000017
:10059000000000770000000000004141360808001C
:1005A0000002010102020100007048444244487008
:1005B000000000000000000000000000000000003B
:1005C000000000000000000000000000000000002B
:1005D000000000000000000000000000000000001B
:1005E000000000000000000000000000000000000B
:1005F00000000000000000000000000000000000FB
:1006000000000000000000000000000000000000EA
:1006100000000000000000000000000000000000DA
:1006200000000000000000000000000000000000CA
:1006300000000000000000000000000000000000BA
:1006400000000000000000000000000000000000AA
:10065000000000000000000000000000000000009A
:10066000000000000000000000000000000000008A
:10067000000000000000000000000000000000007A
:10068000000000000000000000000000000000006A
:10069000000000000000000000000000000000005A
:1006A000000000000000000000000000000000004A
:1006B00000000000000000000000007A00000000C0
:1006C00000182424E724240000685E4941422000E9
:1006D000425A2424245A42000015167C16150000A4
:1006E000000000770000000040DAA7A5E5590302EA
:1006F00000010000000100007E8199A5A5817E0017
:1007000000262929292F2800000814220814220075
:100710000008080808083800000808080808080049
:100720007E81BD95A9817E000101010101010101C8
:1007300000060909060000000044445F444400002C
:100740000012191512000000000A11150A0000001D
:100750000000000201000000807E1010100E10004A
:100760000609097F01017F01000000101000000050
:1007700000008080A040000000121F100000000058
:100780000026292929260000002214082214080026
:100790004A2F1828342AFD204A2F1888D4CAA9B015
:1007A00095552A506854FA40003048454040200092
:1007B00001791412121478000078141212147901BD
:1007C0000072292525297200007915151515790063
:1007D00000791412121479000070282B2B28700055
:1007E000007C0A09097F4949000E9191B1B14A0084
:1007F00000457D545444000000447C54554500009D
:1008000002457D555545020000457C545445000085
:100810000001457C440000000000447C45010000CC
:100820000201457D450102000001447C44010000B5
:1008300000497F4941221C00007A091122437800B7
:1008400001192442422418000018244242241901AC
:100850001229454545291200001129454545291110
:100860000019244242241900002214081422000016
:100870003E7159494D473E00003D414040403C00DB
:10088000003C404040413D00003A414141413A0076
:10089000003D404040403D000004487048050100D4
:1008A00000417F5514140800007E010149562000C4
:1008B000002055555478400000205454557940008C
:1008C000002255555579420000215555555579401E
:1008D000002154545478410000205455547840006D
:1008E0000020545478385454001824A4A4E4400040
:1008F00000385555545418000038545455551800B4
:10090000003A555555551A0000395454545419009D
:10091000000001457C400000000000447D410000D3
:100920000201457D41020000000001447C410000BD
:1009300000304A4A4B3E0200007A09090A0A710057
:100940000030494A48483000003048484A493000A1
:1009500000304A49494A300000324A4A4A4A320085
:1009600000324848484832000008086B6B0808000D
:10097000B84464544C443A00003841424040380086
:10098000003840404442380000384241414238007B
:10099000003A4040407A40000018A0A0A0A27A008F
:1009A0000081FFA424241800001AA0A0A0A07A00AF
:1009B000C31011241FBECFEFD1E2DEBFCDBF00E0D8
:1009C0000CBF12E0A0E0B2E0E4E7FBE200E00BBF06
:1009D00002C007900D92A43DB107D9F724E0A4ED21
:1009E000B2E001C01D92AB3AB207E1F714E0C9EDE5
:1009F000D4E000E006C021970109802FFE010E948B
:100A00005A13C83DD10780E00807A9F70E946C116E
:100A10000C94B8150C94000080E008959B01DC0153
:100A20001896ED91FC9141E067E1199420917C03C7
:100A3000260F3327331F21323105ECF42091A20316
:100A4000FC0190E080E0243069F082E00895A091FC
:100A50007C032191AC01465A5C4FA40FB52FB11D08
:100A60002C930196861798F380917C03680F60930E
:100A70007C0380E0089581E0089508950895089525
:100A8000E091510380915003E81730F4F0E0E05D0D
:100A9000FC4F808190E008958FEF9FEF0895909133
:100AA0005103809150032FEF3FEF981748F4E92F3F
:100AB000F0E0E05DFC4F208130E09F5F90935103B8
:100AC000C90108958091500390915103891B990B9E
:100AD0000895CF92DF92EF92FF920F931F93CF93DF
:100AE000DF937C01CB018A0120912F03222389F01F
:100AF000EB016B01C40ED51ECC15DD0569F06991C3
:100B0000D701ED91FC910190F081E02DC70119957D
:100B1000F3CF642F0E941605C801DF91CF911F917A
:100B20000F91FF90EF90DF90CF900895CF93DF93D8
:100B30001F92CDB7DEB7698320912F032223F9F0EE
:100B400020915203203258F021E030E0FC01338341
:100B5000228390E080E00F90DF91CF910895809103
:100B60005303E82FF0E0E15FFC4F998190838F5FA2
:100B7000809353038093520381E090E0ECCF61E0D7
:100B8000CE0101960E941605F7CF8150823108F000
:100B90005AC0E82FF0E08827EF52FA4F8F4F0C949D
:100BA0005A13F105F505E305E905ED052306F805FA
:100BB000FE05020608060C06100616061A0623068F
:100BC0001E0624062806809180008F77809380007F
:100BD0000895809180008F7DF9CF80918000877F7C
:100BE000F5CF84B58F7784BD089584B58F7DFBCF15
:100BF0008091B0008F778093B00008958091B0000D
:100C00008F7DF9CF809190008F7780939000089529
:100C1000809190008F7DF9CF80919000877FF5CFF4
:100C20008091A0008F778093A00008958091A0000C
:100C30008F7DF9CF8091A000877FF5CF8091200133
:100C40008F77809320010895809120018F7DF9CFC7
:100C500080912001877FF5CF1F93CF93DF93282FBB
:100C600030E0F901EA59FD4F8491F901E05EFD4F52
:100C7000D491F901E652FE4FC491CC23A9F0162F6E
:100C800081110E94C505EC2FF0E0EE0FFF1FE0542C
:100C9000FE4FA591B4918FB7F894EC91111108C053
:100CA000D095DE23DC938FBFDF91CF911F91089504
:100CB000DE2BF8CF1092A20381E08093A403109260
:100CC000A30361E084E10E942C0661E085E10E94BB
:100CD0002C06E9EBF0E080818E7F808380818D7F20
:100CE000808388E48093B80085E48093BC000895F5
:100CF000CF93DF9391E0909359038823B9F0C0918B
:100D0000B800D091BA008091BC008A7B8093BC006F
:100D100060E084E10E942C0660E085E10E942C06E0
:100D20000E945A06D093BA00C093B800DF91CF91C9
:100D30000895CF93DF9390E0FC01E05EFD4F249196
:100D400086529E4FFC0184918823D1F090E0880F59
:100D5000991FFC01EA55FE4FA591B491FC01E054A6
:100D6000FE4FC591D491623071F49FB7F8943C91D5
:100D7000822F809583238C93E8812E2B28839FBF1D
:100D8000DF91CF9108958FB7F894EC912E2B2C938F
:100D90008FBFF6CF90917B00977F90937B00865317
:100DA000806480937C0080917A00806480937A00D4
:100DB00080917A0086FDFCCF809178009091790037
:100DC00008953FB7F89480910B0390910C03A09184
:100DD0000D03B0910E0326B5A89B05C02F3F19F057
:100DE0000196A11DB11D3FBFBA2FA92F982F8827AB
:100DF000BC01CD01620F711D811D911D42E0660F86
:100E0000771F881F991F4A95D1F708958F929F9257
:100E1000AF92BF92CF92DF92EF92FF926B017C0173
:100E20000E94E1064B015C01C114D104E104F1040C
:100E3000B9F00E94E106681979098A099B09683EA0
:100E400073408105910580F321E0C21AD108E108C1
:100E5000F10888EE880E83E0981EA11CB11CE4CF37
:100E6000FF90EF90DF90CF90BF90AF909F908F90CA
:100E70000895662329F06A3019F0862F90E00895CE
:100E80008FEF9FEF0895AF92BF92CF92DF92EF92D4
:100E9000FF920F931F93CF93DF936C017B018B0124
:100EA000040F151FEB015E01AE18BF08C017D10774
:100EB00059F06991D601ED91FC910190F081E02DFE
:100EC000C6011995892B79F7C501DF91CF911F9143
:100ED0000F91FF90EF90DF90CF90BF90AF9008956B
:100EE000FC01538D448D252F30E0842F90E0821B30
:100EF000930B541710F0CF96089501970895FC01B5
:100F0000918D828D981761F0A28DAE0FBF2FB11D0C
:100F10005D968C91928D9F5F9F73928F90E0089564
:100F20008FEF9FEF0895FC01918D828D981731F01E
:100F3000828DE80FF11D858D90E008958FEF9FEF72
:100F40000895FC01918D228D892F90E0805C9F4F48
:100F5000821B91098F739927089584ED93E00E9475
:100F6000A10721E0892B09F420E0822F0895FC01DC
:100F7000A48DA80FB92FB11DA35ABF4F2C91848DFA
:100F800090E001968F739927848FA689B7892C9357
:100F9000A089B1898C91837080648C93938D848DAA
:100FA000981306C00288F389E02D80818F7D8083AD
:100FB0000895EF92FF920F931F93CF93DF93EC016D
:100FC00081E0888F9B8D8C8D98131AC0E889F989F0
:100FD000808185FF15C09FB7F894EE89FF896083F3
:100FE000E889F98980818370806480839FBF81E074
:100FF00090E0DF91CF911F910F91FF90EF900895B6
:10100000F62E0B8D10E00F5F1F4F0F731127E02E90
:101010008C8D8E110CC00FB607FCFACFE889F989C8
:10102000808185FFF5CFCE010E94B707F1CFEB8D10
:10103000EC0FFD2FF11DE35AFF4FF0829FB7F8949C
:101040000B8FEA89FB8980818062CFCFCF93DF93BA
:10105000EC01888D8823B9F0AA89BB89E889F989D0
:101060008C9185FD03C0808186FD0DC00FB607FC05
:10107000F7CF8C9185FFF2CF808185FFEDCFCE0138
:101080000E94B707E9CFDF91CF91089580E090E00B
:10109000892B29F00E94AD0781110E94000080E099
:1010A00090E0892B49F080E090E0892B29F00E94A4
:1010B000000081110E94000080E090E0892B49F03F
:1010C00080E090E0892B29F00E94000081110E94AD
:1010D000000080E090E0892B49F080E090E0892BCF
:1010E00029F00E94000081110C9400000895DC0199
:1010F0001A96ED91FC9130E020E01994CF92DF92A6
:10110000FF920F931F93CF93DF9300D01F921F92F4
:10111000CDB7DEB78C011C8281E08B837A83698333
:10112000D801ED91FC91F1881D82F801A081B18177
:10113000C480D5809E012F5F3F4F50964C916FE049
:10114000C801F60119958D818F5F8D838F1568F326
:101150000F900F900F900F900F90DF91CF911F91F4
:101160000F91FF90DF90CF900895DC011696ED91DE
:10117000FC9130E020E040E069E11994DC01169632
:10118000ED91FC9130E020E040E068E119949A0193
:10119000DC011696ED91FC91462F67E11994EF92D0
:1011A000FF920F931F93CF93DF931F92CDB7DEB7BC
:1011B0007C018B01D8016C91673129F150F46531C4
:1011C000A0F40F90DF91CF911F910F91FF90EF90BE
:1011D00008956A3118F16E3FA1F7F8014181498302
:1011E00069E2C7010E9477080BC0F8014181498379
:1011F000D7011696ED91FC9130E020E0C7011995DA
:101200000E5F1F4FD7CFF80181818983AE014F5FF9
:101210005F4F61E0C7010E94C708F2CF0F5F1F4F09
:10122000D7011696ED91FC9130E020E040E0C70137
:101230001995C0CF462FDC011696ED91FC9130E058
:1012400020E066E11994462FDC011696ED91FC91A1
:1012500030E020E065E11994EF92FF920F931F9325
:10126000CF93DF93EC01042F79016D3009F446C070
:1012700050F46B30C9F1693009F49FC06A3009F449
:1012800065C080E046C06E3009F452C06F3099F7F7
:101290000E94BE08F7011381110F110F110F6C8905
:1012A000160F60E4CE010E942309612F62956F70D2
:1012B0006061CE010E942309612F6F70CE010E94F0
:1012C0001A09F7016481606BCE010E941A09F701C7
:1012D000408151816281660F660F660FCE010E94C8
:1012E000C7080150A1F72EC063E172E0442311F05A
:1012F0006EE072E0CE010E94CF080AC0411110C01A
:1013000067E072E00E94CF08E881F98182898C8BC6
:1013100081E0DF91CF911F910F91FF90EF900895A1
:1013200060E072E00E94CF08E881F9818389EFCF05
:101330000E94BE0861E8CE010E942309602FCE0101
:101340000E941A09CE010E94B508E2CFEA85FB850A
:1013500030E020E040E068E2CE011995EE81FF81A7
:1013600030E020E040E064E1CE01199541E06BE41B
:10137000CE010E947708E881F981448169E2CE01BB
:101380000E94770840E06BE4CE010E947708E88174
:10139000F981448169E2CE010E94770841E06BE463
:1013A000CE010E947708E881F981458169E2CE018A
:1013B0000E94770868E172E09DCF8DE492E0998306
:1013C00088831C8AA5CFDC011896ED91FC9130E052
:1013D00020E040E069E11994DC011896ED91FC9160
:1013E00030E020E040E068E11994CF93DF931F9252
:1013F000CDB7DEB76983BE016F5F7F4F0E940E05D8
:101400000F90DF91CF910895EF92FF921F93CF93AA
:10141000DF93EC01162F7A010E94EC0960E4CE0103
:101420000E94F509E885F9859701412F67E1CE0112
:101430001995CE01DF91CF911F91FF90EF900C9401
:10144000E309EF92FF921F93CF93DF93EC01142FE8
:101450007901663181F138F4643109F44BC06531AA
:1014600079F080E022C06831C9F150F16931C9F7E3
:101470008091F902882391F1CE010E94E3092EC0E8
:101480008091F902882319F0CE010E94E309CE0170
:101490000E94EC0960E0CE010E94F509612FCE01A7
:1014A0000E94F50981E08093F902DF91CF911F91AD
:1014B000FF90EF900895642F0E94F50981E0F5CF29
:1014C0008091F902882319F0CE010E94E309A70157
:1014D000193138F4612FCE010E94040A1092F902EA
:1014E000EDCF68E1CE010E94040A185188E1E80EB0
:1014F000F11CEDCF8E898F3F11F488E78E8BE88544
:10150000F9859701412F64E1CE01DF91CF911F91C1
:10151000FF90EF901994CF93DF93EC01A889B989DC
:10152000FD01349131969491319684911396FD0189
:10153000A4916317A8F1961798F1631B770B8A9F04
:10154000E02D1124E69FC001E79F900D1124280F84
:10155000392F311D83E0220F331F8A95E1F7C9012E
:101560000496DA01245F3F4FE889F989E80FF91FF3
:10157000E491ED93019682179307B1F78D89882343
:1015800061F0FA019A01285F3F4F8191DF011197C5
:1015900080958C932E173F07C1F7DF91CF91089567
:1015A000FA01CA0108961192E817F907E1F7E6CFA8
:1015B0004F925F926F927F928F929F92AF92BF9263
:1015C000CF92DF92EF92FF920F931F93CF93DF930F
:1015D000CDB7DEB72D970FB6F894DEBF0FBECDBFE7
:1015E0007C01C62ED42EB22EDC0150968D919C919A
:1015F000FC013296149131960491512E560E040F2F
:1016000081E0860F581608F411E0712CFE01319626
:101610004F0144244394672CAC2C262DA4016B2D40
:10162000C7010E948B0AAC86DD864B869A86898626
:10163000D7011496ED91FC919E01275F3F4F41E049
:101640006FE0C70119956394A394A51430F3D39464
:10165000710ED01600F32D960FB6F894DEBF0FBEB4
:10166000CDBFDF91CF911F910F91FF90EF90DF9051
:10167000CF90BF90AF909F908F907F906F905F9032
:101680004F900895EF92FF921F93CF93DF93E091D5
:101690008504F09186043296C49110928D0485E9F8
:1016A000E82E82E0F82ED0E012E0F70161917F0190
:1016B000E0917704F091780485E794E019958F3FE5
:1016C000980771F08E3F2FEF920779F3282F41E0B2
:1016D000612F85E794E00E94D80A1C0FDF5FE5CFF9
:1016E0008D2FDF91CF911F91FF90EF900895CF92B2
:1016F000DF92EF92FF920F931F93CF93DF93EC0152
:10170000962F683109F44BC0B901993130F4943106
:10171000C9F0973189F080E006C0993109F461C0C1
:101720009032C9F781E0DF91CF911F910F91FF9027
:10173000EF90DF90CF90089550E088EC93E00E9406
:101740006905F0CF8C859D85AE85BF85892B8A2B59
:101750008B2B71F4E881F981A585B0E020EA36E8A9
:1017600041E050E00E9462136C877D878E879F87DF
:10177000109251031092500310925303109252038F
:101780000E945A068DE395E090937B0380937A0341
:101790008EE395E090937F0380937E03C3CF2C85E7
:1017A0003D854E855F8560E074E284EF90E00E94A5
:1017B00038132051310941095109569547953795FC
:1017C00027952093B8008E8990E09595879591E0B4
:1017D00090932F038093F8021092530310925203B8
:1017E000A1CFD0915203D13208F093C0C091F8023A
:1017F0000E94E1066B017C018091A203811164C00B
:1018000082E08093A20381E08093A4038FEF809312
:10181000A1031092C603D093C503AFE0B3E0E5EA9D
:10182000F3E080E0D8137CC01092C7038091C70317
:10183000CC0FC82BC093C7038091A303813009F05C
:1018400073C01092A3030E94E1066B017C0180919A
:10185000C7038093BB008091550390915603A091DC
:101860005703B0915803892B8A2B8B2B99F00E9438
:10187000E1060091550310915603209157033091D2
:1018800058036C197D098E099F0906171707280749
:101890003907D8F18091BC0083FDD9CF85EC8093C6
:1018A000BC000E94E1066B017C018091A2038230A2
:1018B000E9F18091A1038F3F61F18091A103803212
:1018C00041F18091A10325C0809155039091560369
:1018D000A0915703B0915803892B8A2B8B2B09F4C5
:1018E0008BCF0E94E1060091550310915603209181
:1018F0005703309158036C197D098E099F0906170B
:1019000017072807390708F077CF809154030E9402
:101910007806109253031092520310922F0302CFB5
:101920009D9191938F5F7ECF85EEB9CF80915503C6
:1019300090915603A0915703B0915803892B8A2B9D
:101940008B2B09F4B2CF0E94E10600915503109150
:10195000560320915703309158036C197D098E0965
:101960009F09061717072807390708F09ECFCDCF24
:101970000F931F93CF93DF93EC01862F642F8C324C
:1019800008F03AC08A3208F060C0883209F44BC0CF
:10199000893209F460C0803408F475C0982F9F73B1
:1019A000FE01E90FF11D868D8F3F09F44EC0903185
:1019B00008F436C0282F30E0F901EA59FD4F849130
:1019C000F901E05EFD4F0491F901E652FE4F1491DA
:1019D000112379F081110E94C505E12FF0E0EE0F8F
:1019E000FF1FE457FE4FA591B491EC910E2381E0C7
:1019F00009F480E0898F29C08D3299F108F4CBCFAA
:101A000094EB980F923008F0C6CF8F73C80FD11D9A
:101A10008E8D411134C061E00E94990660E08E8D88
:101A20000E942C0612C08E01025E1F4FD0E0F8010A
:101A300081918F018F3F31F061E0D03108F062E099
:101A40000E949906DF5FD63191F781E0DF91CF9157
:101A50001F910F91089570E090E080E00E940607CA
:101A6000F4CF85E090E0433010F082E090E0880F02
:101A7000991F880F991F05970197F1F7E6CF62E04C
:101A80000E949906E2CF80E0E1CF1F93CF93DF93CE
:101A9000EC01EC89FD8949AD6A3059F43396E49143
:101AA000E40FE9AF18AE81E090E0DF91CF911F9194
:101AB0000895262F3296149168AD04960E94D80A94
:101AC000E8ADE10FE8AFEFCFCF92DF92EF92FF9258
:101AD0000F931F93CF93DF936C01EB017B01E40E17
:101AE000F51E10E000E0CE15DF0561F06991D6012A
:101AF000ED91FC910190F081E02DC6011995080F40
:101B0000191FF1CFC801DF91CF911F910F91FF9065
:101B1000EF90DF90CF900895089590E080E00895D1
:101B2000FC0101900020E9F73197AF01481B590BE8
:101B3000BC0184ED93E00C9443078F929F92AF9287
:101B4000BF920F931F93CF93DF93CDB7DEB7A197CB
:101B50000FB6F894DEBF0FBECDBF19A2423008F415
:101B60004AE08E010F5D1F4F842E912CB12CA12CC9
:101B7000A50194010E943813E62FB901CA01EA3089
:101B8000F4F4E05DD801EE938D01232B242B252B5B
:101B900079F790E080E0109719F0CD010E94900D48
:101BA000A1960FB6F894DEBF0FBECDBFDF91CF91E7
:101BB0001F910F91BF90AF909F908F900895E95C17
:101BC000E1CF4F925F926F927F928F929F92AF92EE
:101BD000BF92CF92DF92EF92FF920F931F93CF931A
:101BE0006B017C01742EAC019B010E94B31588230C
:101BF00099F08AE992E0CF911F910F91FF90EF90B9
:101C0000DF90CF90BF90AF909F908F907F906F901C
:101C10005F904F900C94900D46015701E894B7F8EF
:101C20002FEF3FEF4FE75FE7C501B4010E94B31507
:101C300081110DC02FEF3FEF4FE75FE7C501B40102
:101C40000E94E91318161CF48EE992E0D4CF2FEF0E
:101C50003FEF4FE75FE4C701B6010E944115181638
:101C60001CF482EA92E0C7CF2FEF3FEF4FE75FEC23
:101C7000C701B6010E94E91387FDF3CF20E030E0F1
:101C8000A901C701B6010E94E91310E000E087FF37
:101C90000AC06DE284ED93E00E94D9078C01F7FA47
:101CA000F094F7F8F094C0E060E070E080E09FE32B
:101CB0007C1641F020E030E040E251E40E94EE1357
:101CC000CF5FF6CFA70196010E947D132B013C0147
:101CD0000E9460144B015C014AE00E949D0D7C0152
:101CE000E00EF11ECC23C1F1C501B4010E948F1496
:101CF0009B01AC01C301B2010E947C134B015C014A
:101D00006EE284ED93E00E94D907E80EF91EC150FF
:101D100018F120E030E040E251E4C501B4010E9436
:101D200046152B013C010E9460144B01B12CA12CE3
:101D30004AE0C501B4010E949D0DE80EF91EC501DF
:101D4000B4010E948F149B01AC01C301B2010E9437
:101D50007C134B015C01DBCFC701CF911F910F9129
:101D6000FF90EF90DF90CF90BF90AF909F908F90BB
:101D70007F906F905F904F90089585ED8093BC00A9
:101D80008091550390915603A0915703B091580349
:101D90000796A11DB11D23E0B695A7959795879548
:101DA0002A95D1F72091BC0024FD03C01092A20314
:101DB00008954091550350915603609157037091D7
:101DC0005803452B462B472B69F30097A105B10516
:101DD00041F025E32A95F1F700000197A109B10927
:101DE000E1CF809154030C9478061F920F920FB6A6
:101DF0000F9211240BB60F922F933F934F935F9343
:101E00006F937F938F939F93AF93BF93EF93FF93C2
:101E10008091B900887F803609F44DC008F040C039
:101E2000883209F4A9C028F5803109F49DC0C8F4AE
:101E3000882309F4FBC0883009F496C0FF91EF9124
:101E4000BF91AF919F918F917F916F915F914F91D2
:101E50003F912F910F900BBE0F900FBE0F901F90D0
:101E60001895883109F488C0803241F78093A10326
:101E700014C0803409F49DC040F48033B9F3883332
:101E8000E9F68093A10385ECB0C0803509F485C0E4
:101E9000883509F496C0883489F60E94BD0ECECFED
:101EA000883909F48CC038F5883729F050F4883621
:101EB00011F0803719F683E08093A2031092A003FB
:101EC00057C0883809F47BC0803919F0803809F090
:101ED000B5CF8091A003803208F071C0E091A003DB
:101EE00081E08E0F8093A0038091BB00F0E0E0586A
:101EF000FC4F80833DC0803B39F0E0F4803A09F428
:101F000079C0883A09F09ACF84E08093A2031092B6
:101F10007D0310927C03E0917A03F0917B03199585
:101F200080917C0381110FC081E080937C0310922B
:101F30005A0309C0803C09F4A6CF883C09F4A3CF1A
:101F4000883B09F07BCFE0917D0381E08E0F809389
:101F50007D03F0E0E65AFC4F80818093BB009091B6
:101F60007D0380917C0329C08091C7038093BB00CF
:101F700085EC8093BC0062CF9091C6038091C5032D
:101F8000981758F5E091C60381E08E0F8093C60341
:101F9000F0E0EB55FC4F8081E9CFE091C60381E092
:101FA0008E0F8093C6038091BB00F0E0EB55FC4F91
:101FB00080839091C6038091C5039817C8F285E885
:101FC000D8CFE091C60381E08E0F8093C603809145
:101FD000BB00F0E0EB55FC4F80838091A40381119E
:101FE0005CCF81E08093A30384EA8093BC001092CD
:101FF000A20324CF85EC8093BC001092A2038091B1
:10200000A003803230F4E091A003F0E0E058FC4FF0
:1020100010826091A00370E0E0917E03F0917F0355
:1020200080E893E019951092A00308CF1092A103C5
:1020300034CF1F920F920FB60F9211242F933F931C
:102040008F939F93AF93BF93809107039091080361
:10205000A0910903B0910A033091060323E0230FF6
:102060002D3758F50196A11DB11D209306038093CD
:10207000070390930803A0930903B0930A03809188
:102080000B0390910C03A0910D03B0910E030196E8
:10209000A11DB11D80930B0390930C03A0930D031E
:1020A000B0930E03BF91AF919F918F913F912F916C
:1020B0000F900FBE0F901F90189526E8230F0296E1
:1020C000A11DB11DD2CF1F920F920FB60F921124F6
:1020D0000BB60F922F933F934F935F936F937F9322
:1020E0008F939F93AF93BF93EF93FF9384ED93E010
:1020F0000E94B707FF91EF91BF91AF919F918F9190
:102100007F916F915F914F913F912F910F900BBEF7
:102110000F900FBE0F901F9018951F920F920FB641
:102120000F9211240BB60F922F938F939F93EF93DF
:10213000FF93E091E403F091E5038081E091EA03ED
:10214000F091EB0382FD1DC090818091ED038F5FC4
:102150008F732091EE03821741F0E091ED03F0E0E0
:10216000EC52FC4F958F8093ED03FF91EF919F917F
:102170008F912F910F900BBE0F900FBE0F901F905D
:1021800018958081F2CFCF931092CB031092CA039F
:1021900088EE93E0A0E0B0E08093CC039093CD0371
:1021A000A093CE03B093CF0329E632E03093C90366
:1021B0002093C8031092D7031092D6038093D803BC
:1021C0009093D903A093DA03B093DB038BE792E0FB
:1021D0009093D5038093D40385EC90E09093E10332
:1021E0008093E00384EC90E09093E3038093E20318
:1021F00080EC90E09093E5038093E40381EC90E021
:102200009093E7038093E60382EC90E09093E903D8
:102210008093E80386EC90E09093EB038093EA03CD
:102220001092ED031092EE031092EF031092F00360
:1022300010927404109273041092A9041092AA04CC
:102240008DE892E09093720480937104109276046A
:102250001092750410928A0410928D0410928104D9
:102260001092820410928304109284048FEF809362
:102270008B0480938F04E3E9F4E089EA94E0CFEFE4
:10228000C1938E179F07E1F78CE299E090937A044F
:102290008093790481E29AE090937C0480937B049C
:1022A00087E79BE090937E0480937D0488EB9CE01D
:1022B0009093800480937F0430E020E040E069E068
:1022C00085E794E00E942C09C0939E04C0939F046C
:1022D000C093A004CF910895CF93DF9300D000D096
:1022E0001F921F92CDB7DEB7789484B5826084BD0B
:1022F00084B5816084BD85B5826085BD85B581600A
:1023000085BD80916E00816080936E001092810087
:102310008091810082608093810080918100816042
:102320008093810080918000816080938000809103
:10233000B10084608093B1008091B000816080938F
:10234000B000809191008260809391008091910013
:1023500081608093910080919000816080939000D3
:102360008091A10082608093A1008091A100816092
:102370008093A1008091A00081608093A000809153
:1023800021018260809321018091210181608093ED
:1023900021018091200181608093200180917A0049
:1023A000846080937A0080917A00826080937A00C2
:1023B00080917A00816080937A0080917A008068B1
:1023C00080937A001092C100E091E403F091E5035C
:1023D00082E08083E091E003F091E1031082E091DC
:1023E000E203F091E3038FEC80831092EC03E09121
:1023F000E803F091E90386E08083E091E603F09141
:10240000E703808180618083E091E603F091E70338
:10241000808188608083E091E603F091E70380810A
:1024200080688083E091E603F091E70380818F7DEF
:102430008083E0917904F0917A0430E020E040E07C
:102440006AE085E794E0199588E0F82E8E010F5F29
:102450001F4FF8018F2D11928A95E9F7B80185E792
:1024600094E00E947E08E0917904F0917A0430E0D3
:1024700020E040E06BE085E794E01995E091790475
:10248000F0917A0430E020E040E06BE085E794E0F2
:1024900019958CEA92E09093860480938504F80164
:1024A0001192FA94E9F7B80185E794E00E947E085A
:1024B00089E397E090937804809377040E94420B1D
:1024C0008FB7F89440910703509108036091090376
:1024D00070910A038FBF89E30E94CA068C0186E3CC
:1024E0000E94CA06BC01990F880B990B0E94911497
:1024F00020E030E040E85AE30E9446156B017C0181
:10250000C0920203D0920303E0920403F092050309
:1025100087E30E94CA06BC01990F880B990B0E94A1
:10252000911420E030E040E85AE30E9446154B0148
:102530005C018092FE029092FF02A0920003B09292
:10254000010388E30E94CA06BC01990F880B990B0E
:102550000E94911420E030E040E85AE30E944615C2
:102560002B013C014092FA025092FB026092FC0265
:102570007092FD0286EA92E00E94900D6091020343
:1025800070910303809104039091050342E00E943F
:10259000E10D8EEA92E00E94900D80EB92E00E94A5
:1025A000900D6091FE027091FF0280910003909166
:1025B000010342E00E94E10D8EEA92E00E94900D3C
:1025C00088EB92E00E94900D6091FA027091FB02FC
:1025D0008091FC029091FD0242E00E94E10D8EEAA2
:1025E00092E00E94900D80EC92E00E94900DA50177
:1025F0009401C701B6010E947D13A30192010E94BC
:102600007D1320E030E040E450E40E94EE139B0193
:10261000AC010E947D1342E00E94E10D8EEA92E03F
:102620000E94900D8AEC92E00E94900DB801110F6B
:10263000880B990B0E94911420E030E040E85AE3A7
:102640000E94461520E030E048E452E40E9446151E
:1026500042E00E94E10D81ED92E00E94900D68EC55
:1026600070E080E090E00E9406070E94460828CFB4
:10267000A1E21A2EAA1BBB1BFD010DC0AA1FBB1F86
:10268000EE1FFF1FA217B307E407F50720F0A21BF8
:10269000B30BE40BF50B661F771F881F991F1A9465
:1026A00069F760957095809590959B01AC01BD018F
:1026B000CF010895EE0FFF1F881F8BBF0790F69183
:1026C000E02D19940E946D13A59F900DB49F900D5D
:1026D000A49F800D911D11240895A29FB001B39F66
:1026E000C001A39F700D811D1124911DB29F700D1B
:1026F000811D1124911D08955058BB27AA270E94BF
:1027000094130C9407150E94F91438F00E940015D8
:1027100020F039F49F3F19F426F40C94F6140EF4CB
:10272000E095E7FB0C94F014E92F0E94181558F37C
:10273000BA17620773078407950720F079F4A6F5A6
:102740000C943A150EF4E0950B2EBA2FA02D0B0128
:10275000B90190010C01CA01A0011124FF27591BE6
:1027600099F0593F50F4503E68F11A16F040A22FEC
:10277000232F342F4427585FF3CF4695379527955D
:10278000A795F0405395C9F77EF41F16BA0B620B5C
:10279000730B840BBAF09150A1F0FF0FBB1F661FA3
:1027A000771F881FC2F70EC0BA0F621F731F841FE6
:1027B00048F4879577956795B795F7959E3F08F00C
:1027C000B0CF9395880F08F09927EE0F97958795CE
:1027D00008950E94CC1408F481E008950E94021428
:1027E0000C9407150E94001558F00E94F91440F04F
:1027F00029F45F3F29F00C94F01451110C943B150F
:102800000C94F6140E94181568F39923B1F355231C
:1028100091F3951B550BBB27AA27621773078407F3
:1028200038F09F5F5F4F220F331F441FAA1FA9F389
:1028300035D00E2E3AF0E0E832D091505040E69577
:10284000001CCAF72BD0FE2F29D0660F771F881FD8
:10285000BB1F261737074807AB07B0E809F0BB0BCB
:10286000802DBF01FF2793585F4F3AF09E3F5105DF
:1028700078F00C94F0140C943B155F3FE4F3983E11
:10288000D4F3869577956795B795F7959F5FC9F7C8
:10289000880F911D9695879597F90895E1E0660F49
:1028A000771F881FBB1F621773078407BA0720F0C2
:1028B000621B730B840BBA0BEE1F88F7E09508952B
:1028C0000E94201588F09F5798F0B92F9927B7518B
:1028D000B0F0E1F0660F771F881F991F1AF0BA95C4
:1028E000C9F714C0B13091F00E943A15B1E00895D3
:1028F0000C943A15672F782F8827B85F39F0B93FC5
:10290000CCF3869577956795B395D9F73EF4909576
:102910008095709561957F4F8F4F9F4F0895E894F4
:1029200009C097FB3EF490958095709561957F4F17
:102930008F4F9F4F9923A9F0F92F96E9BB279395C5
:10294000F695879577956795B795F111F8CFFAF4D5
:10295000BB0F11F460FF1BC06F5F7F4F8F4F9F4F06
:1029600016C0882311F096E911C0772321F09EE864
:10297000872F762F05C0662371F096E8862F70E0CA
:1029800060E02AF09A95660F771F881FDAF7880FA4
:102990009695879597F90895990F0008550FAA0BFA
:1029A000E0E8FEEF16161706E807F907C0F0121662
:1029B0001306E407F50798F0621B730B840B950B65
:1029C00039F40A2661F0232B242B252B21F40895BA
:1029D0000A2609F4A140A6958FEF811D811D089557
:1029E00097F99F6780E870E060E008959FEF80ECC2
:1029F000089500240A941616170618060906089565
:102A000000240A9412161306140605060895092ECA
:102A10000394000C11F4882352F0BB0F40F4BF2B39
:102A200011F460FF04C06F5F7F4F8F4F9F4F089579
:102A300057FD9058440F551F59F05F3F71F047956F
:102A4000880F97FB991F61F09F3F79F08795089554
:102A5000121613061406551FF2CF4695F1DF08C073
:102A6000161617061806991FF1CF86957105610590
:102A700008940895E894BB2766277727CB0197F938
:102A800008950E94CC1408F48FEF08950E94591500
:102A90000C9407150E94F91438F00E94001520F0DC
:102AA000952311F00C94F0140C94F61411240C944A
:102AB0003B150E94181570F3959FC1F3950F50E0D8
:102AC000551F629FF001729FBB27F00DB11D639FE0
:102AD000AA27F00DB11DAA1F649F6627B00DA11D86
:102AE000661F829F2227B00DA11D621F739FB00D2C
:102AF000A11D621F839FA00D611D221F749F33279C
:102B0000A00D611D231F849F600D211D822F762F34
:102B10006A2F11249F5750409AF0F1F088234AF011
:102B2000EE0FFF1FBB1F661F771F881F915050407D
:102B3000A9F79E3F510580F00C94F0140C943B15BE
:102B40005F3FE4F3983ED4F3869577956795B79504
:102B5000F795E7959F5FC1F7FE2B880F911D96951E
:102B6000879597F908950E94CC14880B990B0895C6
:042B7000F894FFCF07
:102B74001815A015C019FF1815A115C819FF1815A7
:102B8400AE19FF1815AF19FF1815AE15D516801517
:102B9400A8163F15D316001540158D1614152016CA
:102BA4000015A115C815DA1612158116CF15D916F8
:102BB400F115DB1640152E15A415A619FF000114F6
:102BC4000A6464323200127A000004289610080065
:102BD400008000400000000000960569058D0D3F4F
:102BE4000562054F05400500000000D90743077042
:102BF400072608A1077F07930700000000450D641E
:102C04000D8D0D8C0D54455354006E616E00696E2C
:102C140066006F76660043656C6C20313A002C00C8
:102C240043656C6C20323A0043656C6C20333A0087
:102C340043656C6C204176673A0044657074683A69
:042C4400000D0A0075
:00000001FF
